:100000000C947F010C949C010C949C010C94B22DD7
:100010000C94AF370C949C010C949C010C949C01A3
:100020000C949C010C949C010C949C010C94871FD3
:100030000C949C010C949C010C949C010C949C01CC
:100040000C9407170C949C010C94F1120C94AC12B4
:100050000C949C010C949C010C949C010C949C01AC
:100060000C949C010C949C012E133013691369139A
:1000700069136913691369136913691369136913A0
:10008000361338133A133C133E13401342134413F0
:10009000691348134A134C134E1350135213691328
:1000A000541336233D2340234323482352235C2308
:1000B000FA23FA23FA236B236E2377238023FA2370
:1000C000FA23FA23FA23FA23FA238E239C23AA2362
:1000D000B423B723C023C923CE23FA23FA23D7237B
:1000E000E023EB23084AD73B3BCE016E84BCBFFD27
:1000F000C12F3D6C74319ABD56833DDA3D00C77FF8
:1001000011BED9E4BB4C3E916BAAAABE0000008090
:100110003F05A84CCDB2D44EB93836A9020C50B91F
:10012000918688083CA6AAAA2ABE000000803F7CCF
:10013000413A007C4F763A007C57434F3A007C505E
:100140006E3A007C46533A007C42663A007C575037
:100150006F733A007C4D506F733A00536C65657055
:1001600000446F6F723A00436865636B00416C61D5
:10017000726D00486F6D65004A6F6700486F6C6470
:100180003A0052756E0049646C65000D0A005B65AB
:1001900063686F3A20005B4F50543A005B564552FB
:1001A0003A312E31662E32303137303830313A0024
:1001B000244E0020530020460020540033382E00E7
:1001C0005B47433A4700204700204D005B544C4FAB
:1001D0003A005B4739323A003330003238005B472F
:1001E000005B5052423A005B484C503A2424202491
:1001F0002320244720244920244E2024783D766162
:100200006C20244E783D6C696E6520244A3D6C69F3
:100210006E652024534C5020244320245820244829
:10022000207E2021203F206374726C2D785D0D0AA2
:10023000000D0A4772626C20312E3166205B272444
:100240002720666F722068656C705D0D0A00536C24
:10025000656570696E6700526573746F72696E6769
:10026000207370696E646C6500526573746F726997
:100270006E672064656661756C74730050676D20ED
:10028000456E6400436865636B204C696D697473E7
:1002900000436865636B20446F6F7200446973614B
:1002A000626C656400456E61626C656400436175F3
:1002B00074696F6E3A20556E6C6F636B65640027CE
:1002C0002448277C2724582720746F20756E6C6F74
:1002D000636B00526573657420746F20636F6E7476
:1002E000696E7565005B4D53473A00414C41524D74
:1002F0003A006572726F723A006F6B0D0A0011243A
:100300001FBECFEFD8E0DEBFCDBF11E0A0E0B1E06F
:10031000E2E7FCE702C005900D92A030B107D9F7E3
:1003200017E0A0E0B1E001C01D92A136B107E1F7EE
:100330000E949E010C94373E0C940000DF92EF92D5
:10034000FF920F931F93CF93DF930E947F120E941F
:10035000A4250E941D170E94E0368CE0EAE9F5E032
:10036000DF011D928A95E9F7789410927A058091C1
:10037000500784FF03C081E080937A059AE7E92E55
:1003800095E0F92E81E1D82E14E6CEE8D5E00CE018
:1003900080917A05F7019D2D11929A95E9F7809346
:1003A0007A05109381051093820510938305DE0171
:1003B000E02F1D92EA95E9F710928D0510928C05B9
:1003C0001092A6051092790510928B050E94EC12EE
:1003D0000E94ED100E9401110E944A120E946A2D93
:1003E0000E947D310E9499280E94551F0E94342747
:1003F0000E94E8050E94AD310E945516C9CF809138
:100400008C0584FD1DC080E10E946D370E94421161
:100410000E94561290917A05892F8C7221F4809156
:100420007E05867069F0943031F48091A6058823AA
:1004300029F486E001C083E00E9480370E94251FD6
:1004400008950E94882D84E00E94122E83E00E946D
:10045000122E0E942D1580917B05882331F40E9475
:10046000E8050E9434270E946A2D0895EF92FF92BA
:100470000F931F937B018C0180917A05823039F0B4
:100480000E944416C801B70140E00E94362D1F911A
:100490000F91FF90EF9008950F931F93CF93DF93E9
:1004A0008C01EB018091500785FF07C080917A0590
:1004B000803219F0C8010E94932D80917A05823014
:1004C00009F10E942D1580917B058823D9F40E94A3
:1004D0004426882319F00E943C16F3CFC801BE01C0
:1004E0000E94AA28882371F48091500781FF0AC0D6
:1004F000888584FF07C04C815D816E817F8180E1AA
:100500000E943112DF91CF911F910F910895CF92E8
:10051000DF92EF92FF921F93CF93DF937C016B01E9
:10052000142F80917A05823011F480E062C00E941D
:10053000441680917B05882309F05AC0C12FD0E072
:1005400010927F05CE0123E0969587952A95E1F7D5
:1005500081700E946A310E948331882349F084E0CF
:100560000E9480370E942D1580E00E946A3140C0B1
:10057000C701B6010E944C0281E080938D0582E0A4
:100580000E946D370E942D1580917B05882381F58F
:1005900080917A058823B1F780918D05813081F4AF
:1005A000C4FF0AC0AEE8B5E0EAE9F5E08CE00190EE
:1005B0000D928150E1F707C085E00E94803703C0AB
:1005C00081E080937F0510928D0580E00E946A3162
:1005D0000E942D150E94551F0E9499280E943427C1
:1005E0000E94E73580917F05882319F081E001C0E2
:1005F00082E0DF91CF911F91FF90EF90DF90CF903D
:1006000008952F923F924F925F926F927F928F92B6
:100610009F92AF92BF92CF92DF92EF92FF920F9391
:100620001F93DF93CF93CDB7DEB7ED970FB6F89456
:10063000DEBF0FBECDBF9CAB8BAB7EAB6DAB58AFFF
:100640004FAB3901E9AEFAAE0BAF1CAF1A2D8DAE30
:100650008C2C9924880C991C880C991C9A01280DC3
:10066000391D3AAB29ABC301880D991D98AB8FA7F3
:10067000DC01AD90BD90CD90DC90C601B501F901D3
:1006800020813181428153810E94E4396DA37EA390
:100690008FA398A7412E5524440C551C440C551C7F
:1006A0002FA938AD240D351D3EA72DA7C301840DFC
:1006B000951D9CA78BA7DC01ED90FD900D911C91E1
:1006C000C801B701F90120813181428153810E9423
:1006D000E43969A37AA38BA39CA3D601C501B058C2
:1006E0008D8F9E8FAF8FB8A3D801C701B058898F67
:1006F0009A8FAB8FBC8FABA9BCA98A0E9B1EF4014D
:1007000060817181828193812DA13EA14FA158A565
:100710000E94E3393B014C012BA93CA9420E531E18
:10072000D2016D917D918D919C9129A13AA14BA10E
:100730005CA10E94E3395B016C016D8D7E8D8F8D14
:1007400098A1A60195010E94FB3C7B018C01698D5B
:100750007A8D8B8D9C8DA40193010E94FB3C9B01A3
:10076000AC01C801B7010E94E3391B012C016D8D5A
:100770007E8D8F8D98A1A40193010E94FB3C7B018B
:100780008C01698D7A8D8B8D9C8DA60195010E94BF
:10079000FB3C9B01AC01C801B7010E94E4399B01FD
:1007A000AC01C201B1010E94573A5B016C01639632
:1007B0008FAD6397882399F0C601B5012DEB37E320
:1007C00046E055EB0E94C03C8823ECF0C601B50121
:1007D0002BED3FE049EC50E40E94E33912C0C60122
:1007E000B5012DEB37E346E055E30E94BD3A1816FC
:1007F00054F0C601B5012BED3FE049EC50E40E94F6
:10080000E4395B016C01E0904407F09045070091EA
:1008100046071091470769AD7AAD8BAD9CAD9B0142
:10082000AC010E94E439A80197010E94E3399B01C1
:10083000AC01C801B7010E94FB3C0E94883D7B01CE
:100840008C01C601B50120E030E040E05FE30E948A
:10085000FB3C29AD3AAD4BAD5CAD0E94FB3C9F77B4
:10086000A80197010E94C43A0E949A3B0E94313B22
:10087000788F6F8B6115710509F48BC1EDA9FEA905
:10088000108513FF16C080E090E00E945D3B9B0145
:10089000AC01ADA9BEA96D917D918D919C910E94F5
:1008A000FB3CEDA9FEA96083718382839383177F4C
:1008B00010872F89388DB90180E090E00E945D3B60
:1008C0007B018C01C601B501A80197010E94C43AC1
:1008D0006B8B7C8B8D8B9E8B3DADE32FF0E0EE0F11
:1008E000FF1FEE0FFF1F8FA998AD8E0F9F1F9AA7B6
:1008F00089A7ABA9BCA9EA0FFB1F60817181828126
:100900009381E9A5FAA520813181428153810E941A
:10091000E339A80197010E94C43A6F87788B898BCD
:100920009A8B6B897C898D899E899B01AC010E9481
:10093000FB3C9B01AC0160E070E080E090E40E9431
:10094000E3395B016C016B897C898D899E892BEA77
:100950003AEA4AE25EE30E94FB3C7B018C01C6015D
:10096000B50120E030E040E850E40E94E4399B010A
:10097000AC01C801B7010E94FB3C6B877C878D8767
:100980009E87C601B50120E030E040E05FE30E94B1
:10099000FB3C69837A838B839C8321E030E03E8338
:1009A0002D839924EEC03BE0391508F446C06D8DC7
:1009B0007E8D8F8D98A12B853C854D855E850E940F
:1009C000FB3C7B018C01698D7A8D8B8D9C8D2981FF
:1009D0003A814B815C810E94FB3C9B01AC01C801C8
:1009E000B7010E94E4397B018C016D8D7E8D8F8D66
:1009F00098A129813A814B815C810E94FB3C5B017B
:100A00006C01698D7A8D8B8D9C8D2B853C854D85F8
:100A10005E850E94FB3C9B01AC01C601B5010E94B2
:100A2000E3396D8F7E8F8F8F98A39394C701D80180
:100A3000898F9A8FAB8FBC8F61C0AD81BE81BD01A4
:100A400080E090E00E945D3B2B893C894D895E8966
:100A50000E94FB3C7B018C01C8010E94C13A6F835C
:100A6000788789879A87B701C8010E947E3D3B013C
:100A70004C01EFA5F8A9E080F1800281138117FBFA
:100A8000109517F91095ABA5BCA52D903D904D90F4
:100A90005C90C801B7012F81388549855A850E942D
:100AA000FB3C5B016C01C201B101A40193010E94F6
:100AB000FB3C9B01AC01C601B5010E94E4396D8F7E
:100AC0007E8F8F8F98A3C801B701A40193010E9464
:100AD000FB3C7B018C01C201B1012F813885498526
:100AE0005A850E94FB3C9B01AC01C801B7010E94E2
:100AF000E339698F7A8F8B8F9C8F99246DA17EA1AA
:100B00008FA198A52D8D3E8D4F8D58A10E94E4395F
:100B1000E9A9FAA9608371838283938369A17AA189
:100B20008BA19CA1298D3A8D4B8D5C8D0E94E4395F
:100B3000ADA5BEA56D937D938D939C931397E9A569
:100B4000FAA560817181828193812F8538894989D5
:100B50005A890E94E439A9A5BAA56D937D938D9316
:100B60009C9313978FA998AD6DA97EA90E944C0202
:100B700080917B05882399F4ED81FE813196FE8377
:100B8000ED832D813E818F89988D2817390708F4D0
:100B90000ACF8BA99CA96DA97EA90E944C02ED9653
:100BA0000FB6F894DEBF0FBECDBFCF91DF911F917E
:100BB0000F91FF90EF90DF90CF90BF90AF909F90FC
:100BC0008F907F906F905F904F903F902F900895FF
:100BD0008FEB95E06AE975E00E941B3708952F922C
:100BE0003F924F925F926F927F928F929F92AF92BD
:100BF000BF92CF92DF92EF92FF920F931F93DF93FA
:100C0000CF93CDB7DEB7AC970FB6F894DEBF0FBE6B
:100C1000CDBF2C01E7EEF5E08AE3DF011D928A9556
:100C2000E9F73196A7EAB5E08BE00D90019281508B
:100C3000E1F7F2018081843211F01B8E06C081E061
:100C40008093E8051092E9058B8FFB8D8F2F90E044
:100C50009C01217030703CA72BA7F0FF11C083E0EE
:100C600089831EA219A218A21F8E1E8E1D8E1C8E95
:100C7000A1E02A2E312CF5E1DF2EE0E4BE2EB9C230
:100C80001982EFCF8A2D81548A3118F081E00C94BB
:100C9000CE109F5F9983C201BE016F5F7F4FAE018F
:100CA0004E5F5F4F0E94682B882319F482E00C94FA
:100CB000CE10EA80FB800C811D81C801B7010E9423
:100CC000C93D0E94313B3B014C01C62E70E0882794
:100CD00077FD8095982F0E945F3B9B01AC01C80176
:100CE000B7010E94E33920E030E048EC52E40E9472
:100CF000FB3C0E945E3D0E94313B9B0147E4A416F1
:100D000029F0ADE4AA1609F06FC111C1B8E26B1663
:100D100009F45CC0B61548F1E3E1E61588F0F1E1AD
:100D20006F1608F09EC044E0641609F45BC06416B8
:100D300008F471C08AE0681611F00C94BB1048C02A
:100D40009CE1691609F444C0961530F0A5E1A6159A
:100D500010F40C94BB10A6C0BEE16B16C9F1E6E21C
:100D60006E1611F00C94BB1056C0FDE36F1609F41B
:100D7000BEC0F615A8F045E36416A1F1461550F083
:100D80008BE2681609F494C091E3691611F00C9493
:100D9000BB108EC0ABE3A61510F40C94BB10A1C021
:100DA000BBE5B61550F0EAE56E1608F060C0F0E558
:100DB0006F1611F00C94BB1035C04CE5641641F071
:100DC0008EE5861510F40C94BB1066C087E096C0C3
:100DD0002115310539F49EA1992311F00C94B91015
:100DE000A1E0AEA3C092E705BCE1CB1639F0EEE17D
:100DF000CE1621F0FCE5CF1609F07FC02115310594
:100E000029F02A30310511F00C94BB10C20EC092AB
:100E1000E70580E077C04EA1442311F00C94B9108F
:100E200082E08EA3C092E80596E2C91611F081E037
:100E300065C02431310559F02E31310541F0283299
:100E4000310529F02233310511F00C94BB10C90192
:100E50006AE070E00E94F43D66576093E80581E027
:100E600051C0AFEECA0EC092EC0582E047C06115DA
:100E7000710531F4B6EACB0EC092EB0583E042C0B7
:100E80006A30710511F00C94BB10EAE56E1611F092
:100E90000C94E7100C94BB108EE586198093E9053D
:100EA00085E02CC08D2D86198093EA0586E026C04A
:100EB000FEA1FF2311F00C94B91041E3C41629F4EC
:100EC0001092ED0583E08EA30AC02A30310511F09F
:100ED0000C94BB1091E09093ED05A3E0AEA388E0E5
:100EE00011C0BAECCB0EC092EE0589E007C0672BAB
:100EF00011F40C94EA100C94BB1080E0232B11F039
:100F00000C94BD10910102C0220F331F8A95E2F7A5
:100F10008E8D9F8D82239323892B11F00C94BF100B
:100F2000EE8DFF8DE22BF32BFF8FEE8F62C1672BCF
:100F300011F00C94BD10F5E0F61520F023E06216D8
:100F4000E0F40DC038E0631610F40C94BB1049E0D7
:100F5000461540F58EE1681611F00C94BB10CC20BC
:100F600021F091E0C91629F406C0A3E0A093EF0593
:100F700002C0C092EF058BE022C0B4E06B1651F0C6
:100F8000E5E06E1661F0F3E06F1639F420E120938E
:100F9000F10503C030E23093F1058CE010C01092EF
:100FA000F105FBCF48E0641621F089E0681631F4C2
:100FB00003C0B092F00502C01092F0058DE09101DF
:100FC00002C0220F331F8A95E2F78E8D9F8D8223F8
:100FD0009323892B11F00C94BF10AE8DBF8DA22BE3
:100FE000B32BBF8FAE8F05C1B0E5AB1609F47FC040
:100FF000BA15E4F0EAE4AE1609F44DC0EA154CF077
:10100000F6E4AF1689F129E4A21611F00C94BB1096
:1010100035C03CE4A31609F458C0A3160CF448C02C
:101020004EE4A41611F00C94BB1053C084E5A8162E
:1010300009F47BC08A1554F092E5A91609F461C041
:10104000A3E5AA1611F00C94BB1065C0B9E5AB1668
:1010500009F489C0EAE5AE1609F492C0F8E5AF16C6
:1010600011F00C94BB1072C0E092F305F092F405FD
:101070000093F5051093F60520E08EC0E092F70589
:10108000F092F8050093F9051093FA0528A1216064
:1010900028A321E081C0E092FB05F092FC050093BB
:1010A000FD051093FE0538A1326038A322E074C01C
:1010B000E092FF05F09200060093010610930206ED
:1010C00048A1446048A323E067C06092030624E07F
:1010D00063C0C801B7010E942C3B60930406709363
:1010E0000506809306069093070625E055C0E0921A
:1010F0000806F092090600930A0610930B0626E0F4
:101100004BC0E0920C06F0920D0600930E06109371
:101110000F0627E041C0E0921006F09211060093FE
:1011200012061093130628E037C0C801B70120E06B
:1011300030E04FE753E40E94C03C18161CF486E2EE
:101140000C94CE106092140629E026C0E092150699
:10115000F0921606009317061093180689A1816075
:1011600089A32AE019C0E0921906F0921A060093AA
:101170001B0610931C0699A1926099A32BE00CC04A
:10118000E0921D06F0921E0600931F0610932006A3
:10119000A9A1A460A9A32CE08101022E02C0000F26
:1011A000111F0A94E2F78C8D9D8D80239123892B4A
:1011B00019F089E10C94CE1081E693E002C0959578
:1011C00087952A95E2F780FF0EC06A817B818C812A
:1011D0009D8120E030E040E050E00E94BD3A88234D
:1011E00014F484E0DBC7EC8DFD8DE02BF12BFD8F3B
:1011F000EC8F9981F201E90FF11DA080AA2009F07E
:1012000041CDF9A1FF2329F02EA1222311F432E0D0
:101210003EA34C8D45FF0FC08091040690910506BA
:10122000A0910606B091070681589649A849B0409A
:1012300014F08BE1B3C72BA53CA5232B21F03C8DEB
:1012400030FD19C09EC78091E905813069F44EA137
:101250004230E1F58091E8058035C1F18823B1F194
:101260008C8D80FD33C08DC78091A805882371F5D2
:101270009C8D90FF1BC08091EA05813039F560910B
:10128000F3057091F4058091F5059091F60523E33F
:1012900033E34BEC51E40E94FB3C6093F305709305
:1012A000F4058093F5059093F60510C08091B6057E
:1012B0009091B705A091B805B091B9058093F30559
:1012C0009093F405A093F505B093F605AC8DBD8D14
:1012D000B0FD10C08091B2059091B305A091B40506
:1012E000B091B5058093100690931106A093120655
:1012F000B09313068091E705843041F4BC8DB6FFAE
:1013000042C7EC8DFD8DEF7BFD8FEC8F8091EC055E
:10131000882341F0813061F4F2E0FDA31CA221E0BA
:101320002BA30BC01DA231E03CA342E04BA305C0A0
:1013300081E08DA392E09CA31BA28091EA058130FD
:1013400061F575E1E72E76E0F72E00E010E0A9A147
:10135000CA2EDD24C601002E02C0959587950A94F9
:10136000E2F780FF11C0F701608171818281938172
:1013700023E333E34BEC51E40E94FB3CD7016D9334
:101380007D938D939C9313970F5F1F4FE4E0F0E0E4
:10139000EE0EFF1E03301105E9F6FEA1F33049F40D
:1013A0008091ED05813029F429A1243011F085E2E6
:1013B000F5C6DE011F96EBECF5E08CE001900D9296
:1013C0008150E1F78E8D9F8D91FF12C09091EE05B7
:1013D000973008F0DAC68091AD05891749F0892F5A
:1013E000BE01615F7F4F0E943C24882309F4CFC671
:1013F0008091E7058A3021F08C3509F0FBC097C059
:1014000099A1992309F4C5C68C8D9D8D8075907026
:10141000892B09F4B8C6609108067091090680917D
:101420000A0690910B060E94C93D0E94313B67302D
:1014300008F0ABC620910306243131F0223009F0C8
:101440009AC6AC8DA7FD97C6662319F061506AA3B2
:1014500003C0B091EE05BAA38AA167EF75E00E94C0
:101460003C24882309F493C607EF15E06FEB862E22
:1014700065E0962EEE24FF24E9A1CE2EDD24C601E0
:101480000E2C02C0959587950A94E2F780FF3BC029
:1014900080910306843171F5D4016D917D918D9118
:1014A0009C91139758962D913D914D915C915B972E
:1014B0000E94E339F801268D378D40A151A10E9489
:1014C000E339D8016D937D938D939C931397B2E08C
:1014D000EB16C9F42091E3053091E4054091E50550
:1014E0005091E6050E94E339F8016083718382839D
:1014F000938309C0F801868D978DA0A1B1A1808347
:101500009183A283B3830894E11CF11C0C5F1F4FED
:1015100024E030E0820E931E33E0E316F10409F07C
:10152000AECF8C8D9D8D8F7A9D8F8C8F28C199A188
:10153000992309F42EC605E116E05FEB852E55E0F0
:10154000952E4FE0642E712C6C0E7D1EEE24FF2430
:10155000C92EDD24C6010E2C02C0959587950A94EC
:10156000E2F780FF2CC0D4016D917D918D919C910B
:10157000F30120813181428153810E94E339D801F6
:101580002D913D914D915C910E94E339F80160836A
:10159000718382839383F2E0EF16D9F42091E305FF
:1015A0003091E4054091E5055091E6050E94E3394C
:1015B000D8016D937D938D939C9313970AC0F4018A
:1015C000808D918DA28DB38DF80180839183A2834C
:1015D000B3830894E11CF11C0C5F1F4F24E030E042
:1015E000820E931E620E731E33E0E316F10409F0BF
:1015F000B1CFC4C04EA1433009F47DC089A1882376
:1016000009F479C03FEB832E35E0932E05E116E017
:101610002FE0C22ED12CCC0EDD1EEE24FF24A82EEE
:10162000BB24C5010E2C02C0959587950A94E2F75C
:1016300080FD0BC0F40180819181A281B381F8010A
:1016400080839183A283B38346C08091E70585336D
:1016500009F441C08091EB05882361F5D6016D91B5
:101660007D918D919C91F401208D318D428D538D12
:101670000E94E439D8012D913D914D915C910E94D9
:10168000E439F8016083718382839383F2E0EF167B
:1016900011F52091E3053091E4054091E505509165
:1016A000E6050E94E439D8016D937D938D939C9358
:1016B000139711C0F8016081718182819381D401F7
:1016C0002D913D914D915C910E94E439F801608328
:1016D0007183828393830894E11CF11C24E030E041
:1016E000820E931E0C5F1F4FC20ED31E33E0E31613
:1016F000F10409F096CF8091E7058E3121F0853312
:10170000B9F18C31D9F58C3111F486E001C087E054
:1017100067EF75E00E943C24882309F438C549A18D
:10172000442311F41EA22AC04FEB55E0E7EFF5E089
:1017300020E030E089A1682F70E0CB01022E02C0CA
:10174000959587950A94E2F780FD09C0DA01ED903E
:10175000FD900D911C91E082F182028313832F5F33
:101760003F4F4C5F5F4F34962330310531F706C051
:101770008091E805823010F08EE110C51AA2109118
:10178000E805103531F4B9A1BB2309F458C28FE143
:1017900005C5EEA1E23009F052C2112329F4F9A1E6
:1017A000FF2309F44BC24BC26091F3057091F4051D
:1017B0008091F5059091F60520E030E040E050E0A2
:1017C0000E94BD3A882309F4DCC41C3809F421C204
:1017D0001D3840F41230A9F01330B1F0113009F087
:1017E0002EC20AC01E3809F414C21E3808F40EC2F4
:1017F0001F3809F024C20AC229A1222309F41EC2FB
:101800001EC23B8D34603B8F49A1442309F4C1C4FF
:101810009DA1892F90E09AA789A7BCA1AB2FB0E02A
:10182000B8A7AFA381E090E08C010FA002C0000F29
:10183000111F0A94E2F709A402C0880F991F0A94A5
:10184000E2F7082B192B842F90E080239123892B1A
:1018500011F480E2A3C4A9A5BAA5AA0FBB1FAA0FC1
:10186000BB1FA951BA4FE9A5FAA5EE0FFF1FEE0F56
:10187000FF1FE154FA4F9E966D917D918D919C9141
:10188000D19720813181428153810E94E3395B01EC
:101890006C01AFA1B8A5AA0FBB1FAA0FBB1FA9510E
:1018A000BA4FEFA1F8A5EE0FFF1FEE0FFF1FE15497
:1018B000FA4F9E966D917D918D919C91D19720814B
:1018C0003181428153810E94E3391B012C01EC8D4F
:1018D000E7FFEEC08FEB95E065E176E04CE050E08D
:1018E0000E942A3E009709F456C48091EA0581308F
:1018F000B1F460910C0670910D0680910E069091E6
:101900000F0623E333E34BEC51E40E94FB3C60936E
:101910000C0670930D0680930E0690930F06E090D0
:101920000C06F0900D0600910E0610910F06C801EE
:10193000B70120E030E040E850E40E94FB3CA80101
:1019400097010E94FB3C7B018C01C601B501A601F9
:1019500095010E94FB3C9B01AC01C801B7010E94AC
:10196000E3397B018C01C201B101A20191010E9406
:10197000FB3C9B01AC01C801B7010E94E3397B012C
:101980008C0120E030E040E050E00E94BD3A882326
:1019900014F482E203C4C801B7010E94883D7B01B0
:1019A0008C01C601B501A20191010E940D2D9B0180
:1019B000AC0117FB109517F91095C801B7010E94EB
:1019C000C43A7B018C018091E805833021F417FB38
:1019D000109517F9109560900C0670900D06809088
:1019E0000E0690900F06C401B30120E030E040E005
:1019F00050E00E94BD3A88237CF417FB109517F93C
:101A00001095D401C301B05880930C0690930D0635
:101A1000A0930E06B0930F062C8D3D8D2F773D8F32
:101A20002C8F89A59AA5880F991F880F991F895017
:101A30009A4F9AA789A7C201B101A80197010E94F4
:101A4000FB3C9B01AC01C601B5010E94E33920E0DB
:101A500030E040E05FE30E94FB3CA9A5BAA56D938E
:101A60007D938D939C931397EFA1F8A5EE0FFF1F25
:101A7000EE0FFF1FE950FA4FF8A7EFA3C601B5011B
:101A8000A80197010E94FB3C9B01AC01C201B1017E
:101A90000E94E43920E030E040E05FE30E94FB3C3C
:101AA000AFA1B8A56D937D938D939C931397C7C0F9
:101AB000B8A18B2E992408211921012B11F483E25E
:101AC0006DC3EC8DFD8DE17FFD8FEC8F8091EA057C
:101AD000813041F537EFE32E35E0F32E00E010E0E2
:101AE000C401002E02C0959587950A94E2F780FF05
:101AF00010C0D7016D917D918D919C9123E333E3CB
:101B00004BEC51E40E94FB3CF701608371838283BC
:101B100093830F5F1F4F24E030E0E20EF31E03308B
:101B20001105F1F6E9A4FAA4EE0CFF1CEE0CFF1C63
:101B300087EF95E0E80EF91EC601B501D7012D919A
:101B40003D914D915C910E94E3395B016C010FA1C5
:101B500018A5000F111F000F111F09501A4FC201C5
:101B6000B101F80120813181428153810E94E33922
:101B70009B01AC01C601B5010E940D2D5B016C01FA
:101B8000D7016D917D918D919C91F80120813181DA
:101B9000428153810E940D2D3B014C0160930C0644
:101BA00070930D0680930E0690930F06C601B50143
:101BB000A40193010E94E3397B018C01E89417F999
:101BC000C801B7012AE037ED43EA5BE30E94C03C5D
:101BD0001816ACF5C801B70120E030E040E05FE343
:101BE0000E94C03C18160CF4D6C2C401B3012FE603
:101BF00032E143E85AE30E94FB3C9B01AC01C8017F
:101C0000B7010E94C03C1816D4F4C5C2FB8DF06128
:101C1000FB8F1E58123018F42B8D28602B8F39A1A2
:101C2000332309F4B6C28FEB95E065E176E04CE032
:101C300050E00E942A3E009711F4ADC21EA24B8DC7
:101C4000842F90E09C012170307040FF04C08C8D87
:101C50009D8D8E7D04C08C8D9D8D8E7D9C7FAEA1D3
:101C6000AA2309F0937E892B11F084E297C289E0C0
:101C7000FE013696DF011D928A95E9F7232B91F13B
:101C8000EE8DFF8DE67BEF2B09F087C28091E70593
:101C9000853319F0882309F080C28091B2059091B4
:101CA000B305A091B405B091B5058A879B87AC8731
:101CB000BD878091AF059091B005892B8E87CE01AD
:101CC000069667EE75E00E941030882309F066C220
:101CD000AFEBB5E0E5E1F6E09CE001900D929150AC
:101CE000E1F75CC28091500781FF27C08091E80531
:101CF0008150833018F0FB8DF064FB8F29A12223E3
:101D000039F03EA1323021F44B8D40684B8F15C025
:101D10008091B005803189F48091A70581509B8D19
:101D2000833030F496FF09C0892F80628B8F05C005
:101D300096FD03C09B8D90629B8F809104069091CD
:101D40000506A0910606B09107068093BB05909307
:101D5000BC05A093BD05B093BE058091E9058093B5
:101D6000A805882319F08E8588608E878091F305F9
:101D70009091F405A091F505B091F6058093B60514
:101D80009093B705A093B805B093B9058E839F8350
:101D9000A887B987E0901006F0901106009112060E
:101DA000109113066091B2057091B3058091B4054E
:101DB0009091B505A80197010E94BD3A882319F4B6
:101DC000AB8DA5FF22C08091B005882371F0BB8D3B
:101DD000B7FD0BC0B6FF05C040E050E060E070E02A
:101DE00002C0B801A7010E943112809110069091A3
:101DF0001106A0911206B09113068093B20590933C
:101E0000B305A093B405B093B505EB8DCE2EDD24BC
:101E1000E6FD0CC08091B2059091B305A091B40588
:101E2000B091B5058A879B87AC87BD8780911406E2
:101E30008093BA059091F1058091B005891759F00A
:101E40004A855B856C857D85892F0E943112809142
:101E5000F1058093B0058E859091B005892B8E8712
:101E60009091F0058091AF05891779F0892F0E9434
:101E700066129091F005992319F41092AF0505C0F0
:101E80008091AF05892B8093AF058E859091AF052A
:101E9000892B8E878091E705843051F46091080684
:101EA0007091090680910A0690910B060E943602F5
:101EB0008091EC058093AB058091EA058093A9059C
:101EC000FEA1F33091F58091ED058093AC05882358
:101ED00061F480E090E0A0E0B0E080931D06909374
:101EE0001E06A0931F06B0932006E0901D06F090FA
:101EF0001E0600911F06109120066091E305709167
:101F0000E4058091E5059091E605A80197010E94FE
:101F1000BD3A882351F0E092E305F092E405009386
:101F2000E5051093E6050E94AA379091EE05809191
:101F3000AD05891769F09093AD05ABECB5E0FE01F6
:101F40003F968CE001900D928150E1F70E94AA37F4
:101F50008091EB058093AA058091E705863209F40C
:101F600047C0873240F48C3129F18E3119F18A3023
:101F700009F059C00AC08C3509F442C0863609F40C
:101F800049C0883209F04FC035C08AA167EF75E0BB
:101F90000E9423248091AD052AA1821709F043C035
:101FA000ABECB5E0E7EFF5E08CE001900D928150ED
:101FB000E1F737C08E8581608E873EA1332339F0EB
:101FC00085E196E0BE016A5F7F4F0E944C0287EF79
:101FD00095E0BE016A5F7F4F0E944C02AFEBB5E017
:101FE000E7EFF5E08CE001900D928150E1F71BC026
:101FF00086E001C087E06FEB75E00E94232413C0E8
:10200000A7EDB5E0E5E1F6E08CE001900D9281509E
:10201000E1F707C08CE0E7EDF5E0DF011D928A955E
:10202000E9F70E94AA378091E8058093A7058035DB
:1020300009F454C0BEA1B23009F050C0813029F07B
:10204000882359F48E8581608E8785E196E0BE01F4
:102050006A5F7F4F0E944C022FC08250BE016A5FB0
:102060007F4F8230F8F40F92E0900C06F0900D064E
:1020700000910E0610910F06D694C794D694C7947B
:102080008C2D8170EDB7FEB7818385E196E04FEB33
:1020900055E027EF35E0CDA0ACA08BA00E94010356
:1020A0000F900AC08E8584608E8785E196E04B8D07
:1020B0000E948702882351F4AFEBB5E0E5E1F6E03A
:1020C0008CE001900D928150E1F708C0813031F42D
:1020D0008FEB95E06AE975E00E941B378091EF0570
:1020E0008093AE05882309F459C00E94441680915C
:1020F000AE05833051F480917A058230B1F188E0E9
:102100000E946D370E942D1530C081E08093A70595
:102110001092AB051092AA051092A8051092AD0579
:102120001092B0051092AF0584E6809381058093EC
:1021300082058093830580917A05823099F080E052
:102140006BEC75E00E943C24882309F10E94AA37B9
:1021500080E040E050E060E070E00E94001280E02B
:102160000E94581288E00E94B2311092AE0580E0C1
:1021700015C088E113C084E111C087E10FC085E17B
:102180000DC086E10BC08CE109C08DE107C087E07E
:1021900005C08AE103C081E201C080E1AC960FB6C0
:1021A000F894DEBF0FBECDBFCF91DF911F910F918D
:1021B000FF90EF90DF90CF90BF90AF909F908F9067
:1021C0007F906F905F904F903F902F90089584E0A4
:1021D0000C9482078AE00C948207E7EAF5E080E439
:1021E000DF011D928A95E9F78091AD05BF016C5D15
:1021F0007F4F0E943C24882319F487E00E94FE311F
:1022000008950F931F93239A00EB10E083E0F801E9
:10221000808384E08093B100259A60914807709193
:10222000490780914A0790914B0720914C073091C4
:102230004D0740914E0750914F070E94E3399B0193
:10224000AC0160E070E08EE793E40E94C43A6093D2
:102250000001709301018093020190930301F80142
:1022600080818F7780831F910F9108958091B000B6
:1022700087FD02C080E008952D9902C081E0089595
:1022800082E00895E0EBF0E080818F77808308950D
:102290008093B300882321F48091B0008F7703C02E
:1022A0008091B00080688093B00008955F926F9233
:1022B0007F928F929F92AF92BF92CF92DF92EF92D6
:1022C000FF920F931F937B018C01509083056090C8
:1022D0004C0770904D0780904E0790904F07A0904C
:1022E0004807B0904907C0904A07D0904B07C401F7
:1022F000B301A60195010E94C03C87FF1CC0652D5B
:1023000070E0882777FD8095982F0E945F3B2AE038
:1023100037ED43E25CE30E94FB3C9B01AC01C8014A
:10232000B7010E94FB3C7B018C01A60195010E9434
:10233000C03C882354F0A0928705B0928805C092D3
:102340008905D0928A058FEF4DC0C801B701A4015D
:1023500093010E94BD3A181614F1C801B70120E09C
:1023600030E040E050E00E94BD3A882371F480E004
:1023700090E0A0E0B0E08093870590938805A0935B
:102380008905B0938A0580E02DC060928705709220
:1023900088058092890590928A0581E023C0E092A9
:1023A0008705F09288050093890510938A05C80176
:1023B000B701A40193010E94E339209100013091FB
:1023C000010140910201509103010E94FB3C0E94D7
:1023D0009A3B20E030E040E85FE30E94E4390E944D
:1023E000313B862F1F910F91FF90EF90DF90CF90A0
:1023F000BF90AF909F908F907F906F905F90089567
:10240000982F80917B05882359F5992391F480E0DA
:1024100090E0A0E0B0E08093870590938805A093BA
:102420008905B0938A058091B0008F778093B000C2
:1024300015C0903111F42D9801C02D9A809150074C
:1024400081FF06C0903221F440E050E060E070E08F
:10245000CB01BA010E9456110E94481110928505C5
:102460000895DF92EF92FF920F931F93D82E7A0177
:102470008B0180917A05823039F00E9444168D2DAF
:10248000B801A7010E9400121F910F91FF90EF90D9
:10249000DF9008953B9A4398089588B190E023E037
:1024A000969587952A95E1F7817008954398089548
:1024B000982F80917B05882341F4992311F4439848
:1024C00002C096FD439A1092850508951F93182F18
:1024D00080917A05823029F00E944416812F0E9453
:1024E00058121F9108958091050190910401981749
:1024F00018F08058891B08958150891B0895E0ECDD
:10250000F0E08081826080831092C50080E180933A
:10251000C400E1ECF0E08081886980830895282F71
:10252000E09106019E2F9F5F993631F490E004C040
:1025300080918C0584FD0FC0809107019817C1F32D
:10254000F0E0EF5DF94F2083909306018091C10088
:1025500080628093C10008951F920F920FB60F9270
:1025600011248F939F93EF93FF9380910701E82F9E
:10257000F0E0EF5DF94F90819093C600982F9F5F38
:10258000993609F490E0909307018091060198171D
:1025900029F48091C1008F7D8093C100FF91EF915C
:1025A0009F918F910F900FBE0F901F901895909153
:1025B000050180910401891711F48FEF0895E92F27
:1025C000F0E0E657F94F8081E92FEF5FE13809F439
:1025D000E0E0E093050108958091040180930501F6
:1025E00008951F920F920FB60F9211242F933F93CD
:1025F0004F935F936F937F938F939F93AF93BF930B
:10260000EF93FF939091C600913299F0923218F4B3
:10261000983189F405C09F3331F09E3761F405C0CD
:102620000E94FF0156C081E001C082E00E946D3728
:1026300050C088E0FBCF97FF3BC0892F90E0FC01A2
:10264000E458F040ED31F10508F043C0EC5CFF4F79
:10265000EE0FFF1F0590F491E02D099480E2E6CF84
:1026600080917A0585FF35C080E4E0CF81E00DC020
:1026700082E00BC084E009C088E007C080E105C0AB
:1026800080E203C080E401C080E80E948C3721C052
:1026900081E00BC082E009C084E007C088E005C08B
:1026A00080E103C080E201C080E40E94953711C040
:1026B000E09104012E2F2F5F213809F420E0809152
:1026C0000501281731F0F0E0E657F94F9083209389
:1026D0000401FF91EF91BF91AF919F918F917F91F5
:1026E0006F915F914F913F912F910F900FBE0F907F
:1026F0001F9018951F93CF93DF931091A605112378
:10270000A9F081E080937A05812F0E94CD36115087
:10271000123050F481E00E94B23180E10E9476379D
:1027200080918C0584FFFCCF0E94863710918C0528
:10273000112309F401C1C12FD0E014FF04C081E0CE
:1027400080937B0586C110FF05C00E94203481E084
:102750000E9476379E01287E09F468C080917A0530
:10276000282F30E0C90183709070892B09F04DC08B
:1027700028723070232BA1F080917C05807C81F43D
:102780000E943F1782E080937E0580917A05803217
:1027900039F417FD05C080917C05806880937C0525
:1027A00090917A05992319F481E080937C05C6FF06
:1027B00007C095FD05C080917C05806480937C05F1
:1027C000C3FF05C0907E19F480E180937A05C5FFB0
:1027D0001CC086E00E94B23180917C0587FD10C04C
:1027E00090917A05903439F483FF07C0837E82602C
:1027F00080937C0502C0903819F080E480937A05BC
:1028000080917C05806280937C0517FF0CC08091CD
:102810007A05813029F480917C05856080937C0560
:1028200080E880937A0588EE0E947637C1FF46C023
:10283000CE0188769070892BF1F580917A058034ED
:1028400071F490917C0595FD0AC094FF03C010922D
:102850007A0505C092FF03C0986090937C05909123
:102860007A05992381F094FF26C080917C0580FF32
:1028700022C0903141F480918405882321F0886042
:102880008093840518C010927E050E940626892B2D
:1028900071F080917C0586FD0AC010927C0588E06D
:1028A00080937A050E947A170E94E71604C010925E
:1028B0007C0510927A0582E00E947637C2FF3CC008
:1028C00080917A05807DB9F080917D05882399F407
:1028D00080917C0587FD0FC00E94902890917E0515
:1028E00091FF05C080917C05816080937C05997F74
:1028F00090937E051EC080917C0587FF0AC01092D0
:102900007E050E9499280E94551F0E94E8050E949A
:10291000342780917C0585FF08C08F778160809384
:102920007C0580E480937A0504C010927C051092A7
:102930007A0584E00E94763710917905112391F190
:102940000E949E3740918105912F10FD02C0842F77
:1029500001C084E691FD865F92FD8A5093FD8F5FF2
:1029600094FD8150893C08F088EC282F8A3008F4C7
:102970002AE03091820595FD02C0832F01C084E6D4
:1029800096FD82E317FD89E1241711F4831751F0B6
:102990002093810580938205109285050E94C626AA
:1029A0000E94902810918B05112309F44CC00E94BD
:1029B000A43730918305212F10FD02C0832F01C061
:1029C00084E621FD865F22FD8A5023FD8F5F24FD72
:1029D0008150893C08F088EC982F8A3008F49AE0FE
:1029E000931749F080917E05886080937E059093CF
:1029F00083051092850525FF0FC080917A058031EF
:102A000059F480918405882311F482E003C080FF8B
:102A100003C0846080938405822F807CA1F0809124
:102A20007A05882311F0887171F08091AF0586FFD7
:102A300003C0182F1F7B02C0182F1064812F0E9423
:102A400058121093AF0580917A058C7F11F00E9487
:102A50007A17DF91CF911F910895BF92CF92DF92A5
:102A6000EF92FF920F931F930E947A1380917C053F
:102A7000882309F4F9C00E940626FC01009771F42E
:102A80001091AF058091B005182BC090B205D09081
:102A9000B305E090B405F090B50505C01189C6A452
:102AA000D7A4E0A8F1A88091500781FFD3C080E2AD
:102AB0000E949537CFC080917B05882309F0D4C050
:102AC000292F90FFC4C090917A05892F807C09F44A
:102AD00077C022FD13C01092840580E040E050E0F2
:102AE00060E070E00E94001280E00E945812809125
:102AF0007C058D7F846080937C05A9C09038B9F4F3
:102B00008BE00E94B23180E040E050E060E070E095
:102B10000E94001280E00E9458120E94251F02C0ED
:102B20000E947A1380917B058823D1F39DC0903455
:102B300049F40E94FD36882329F480917C058F7D1D
:102B400080937C0580917C05982F83FF80C08091C5
:102B5000B0058823C1F091FD16C08091500781FF18
:102B600006C080917E05886080937E050CC0802F12
:102B7000B701A6010E94001260E070E080E890E4D6
:102B800041E00E94362D8091AF05882371F080913D
:102B90007C0581FD0AC0812F0E94581260E070E020
:102BA00080E89FE341E00E94362D80917C0581FD05
:102BB0004EC0806180937C0582E00E946D3747C0E3
:102BC000809184058823A9F190E081FF0EC0809157
:102BD000B005882359F180E040E050E060E070E00B
:102BE0000E940012B092840532C08C709070892BC4
:102BF00071F18091B005882391F08AE00E94B23192
:102C00008091500781FF06C080917E058860809387
:102C10007E0505C0802FB701A6010E940012809199
:102C2000840583FF03C082E00E946D371092840503
:102C30000EC080917E0583FF0AC0802FB701A601D8
:102C40000E94001280917E05877F80937E050E94FE
:102C50007A1305C0012F0073BB24B39410749091B4
:102C60007C05992309F027CF1F910F91FF90EF90DA
:102C7000DF90CF90BF9008950E940626892B19F00F
:102C800082E00E946D3708950E943C160E942D1527
:102C900080917B05882341F40E940626892BB1F799
:102CA00080917A05883091F308950F931F93809156
:102CB000500783FF0AC00E94E12D882331F081E094
:102CC00080937A0587E00E94B23180917A058178FD
:102CD00039F082E00E94B23181E080937A0527C00A
:102CE00010927A050E94FD36882339F080918C0578
:102CF000806280938C050E942D1588E091E00E94EF
:102D0000E73715C09A3011F09D3051F50E942D150E
:102D100080917B05882309F057C0E12FF0E0E85F40
:102D2000FE4F108200FF06C08BE00E94FE3100E0E3
:102D300010E03CC0809108018823B9F3843229F463
:102D400088E091E00E941538F0CF80917A05817279
:102D500011F089E0EACF88E091E00E94EF05E5CF2D
:102D6000002321F0993211F50D7F20C09132F0F04F
:102D70009F32E1F0983211F402E018C09B3311F455
:102D800004E014C01F3410F001E010C0892F8156F8
:102D9000A12FB0E0E12FEF5F8A3120F4A85FBE4F92
:102DA000905202C0A85FBE4F9C931E2F0E94D71264
:102DB000982F8F3F09F0A6CF0E943C160E942D1538
:102DC00080917B05882391F31F910F910895809145
:102DD000500782FF02C0289A01C028988091020201
:102DE0008093EA0180913B0790E0A0E0B0E0029779
:102DF000A109B109880F991FAA1FBB1F8195809354
:102E0000E90180916F00826080936F0008951F92A6
:102E10000F920FB60F9211248F939F939BB18091C5
:102E200002028C71937E892B8BB915BC9F918F9177
:102E30000F900FBE0F901F9018958AB18C618AB9C0
:102E4000209A8AB1806E8AB9E1E8F0E080818F7EB5
:102E50008083808188608083E0E8F0E080818C7FDF
:102E6000808380818F708083EEE6F0E08081887FB0
:102E7000808314BC15BC8081816080830895CF93CA
:102E8000DF93C0910502D09106022097C9F080918E
:102E90000A02816080930A0220912002309121026F
:102EA0004091220250912302CA01B9010E94FB3CC9
:102EB0006A8B7B8B8C8B9D8B109206021092050285
:102EC000DF91CF91089580917A058C7721F470E09D
:102ED00060E090E008C07091200260912102909122
:102EE000220280912302272F362F492F582FB90114
:102EF000CA0108952F923F924F925F926F927F92F4
:102F00008F929F92AF92BF92CF92DF92EF92FF92F9
:102F10000F931F93DF93CF93CDB7DEB7E9970FB62B
:102F2000F894DEBF0FBECDBF80917E0580FF31C714
:102F300037C78091050290910602892B09F04AC398
:102F400080917E0582FF03C00E94FC2502C00E9482
:102F500006269093060280930502809105029091C7
:102F60000602892B09F41CC780910A0280FF03C066
:102F700010920A02FDC0809109028F5F853009F42A
:102F800080E08093090222E1829FF0011124E85A37
:102F9000FE4FF0930802E0930702009105021091A2
:102FA0000602D80150968C915097808B2D913D91BF
:102FB0004D915C91139793E0220F331F441F551FCF
:102FC0009A95D1F7208331834283538314962D91B0
:102FD0003D914D915C91179783E0220F331F441F61
:102FE000551F8A95D1F724833583468357831896D6
:102FF0002D913D914D915C911B9773E0220F331FF2
:10300000441F551F7A95D1F7208731874287538710
:103010001C962D913D914D915C911F9763E0220F7D
:10302000331F441F551F6A95D1F72487358746877C
:1030300057871C966D917D918D919C911F970E9451
:103040005D3B60930F027093100280931102909386
:103050001202F801268D378D40A151A10E94C43A79
:103060009B01AC01609313027093140280931502CC
:103070009093160260E070E080EA9FE30E94C43AF9
:1030800060931702709318028093190290931A02AA
:1030900080E090E0A0E0B0E080930B0290930C02FF
:1030A000A0930D02B0930E0280917E0581FD04C0B5
:1030B00080910A0283FF25C02091280230912902C5
:1030C00040912A0250912B0220932002309321023A
:1030D00040932202509323020091050210910602B0
:1030E000CA01B9010E94FB3CD80152966D937D93B1
:1030F0008D939C93559780910A02877F80930A0253
:103100000FC0F80162897389848995890E94883D7E
:1031100060932002709321028093220290932302F5
:10312000E0910702F0910802118A8091500781FF17
:103130001FC0E0910502F0910602818985FF18C049
:1031400060E070E080E89FE322A533A544A555A583
:103150000E94C43A60933402709335028093360221
:1031600090933702E0910702F091080221E0218B51
:1031700080E090E0A0E0B0E080931C0290931D02FC
:10318000A0931E02B0931F02009105021091060247
:10319000D8015A962D903D904D905C905D9760E0DF
:1031A00070E080E09FE3A20191010E94C43A68A30D
:1031B00079A38AA39BA380917E05282F81FF56C007
:1031C000B2E0B0931B02F801A68CB78CC0A0D1A0CE
:1031D000628873888488958868A179A18AA19BA157
:1031E000A40193010E94FB3C9B01AC01C601B50107
:1031F0000E94E3397B018C0120E030E040E050E0A8
:103200000E94BD3A8823ECF4C201B10120E030E015
:1032100040E050EC0E94FB3CA60195010E94FB3C63
:103220009B01AC01C401B3010E94E4390E94883DB6
:10323000609328027093290280932A0290932B02B4
:10324000C4C1E0921C02F0921D0200931E02109372
:103250001F0280E090E0A0E0B0E08093280290930D
:103260002902A0932A02B0932B02AFC110921B0235
:10327000F801868D978DA0A1B1A180932C02909327
:103280002D02A0932E02B0932F0222FF0FC080E0E8
:1032900090E0A0E0B0E08093280290932902A093F0
:1032A0002A02B0932B021C012D010EC00E9417268A
:1032B0001B012C010E94883D609328027093290213
:1032C00080932A0290932B0280910502909106022E
:1032D0000E944E266C8F7D8F8E8F9F8F9B01AC013D
:1032E0000E94FB3C3B014C01A0910502B0910602FB
:1032F000B9AFA8AF5E96AD90BD90CD90DC909197A0
:103300005296ED90FD900D911C915597C801B70113
:10331000A40193010E94C03C18160CF07BC0C801A8
:10332000B701A40193010E94E3399B01AC0168A19C
:1033300079A18AA19BA10E94FB3C9B01AC01C60123
:10334000B5010E94E33960932C0270932D028093A3
:103350002E0290932F0220E030E040E050E00E94E7
:10336000BD3A18168CF1B2E0B0931B02E8ADF9AD8E
:10337000628D738D848D958D20E030E040E050ECBF
:103380000E94FB3CA8ADB9AD5E962D913D914D914B
:103390005C9191970E94FB3CE8ADF9AD228933899D
:1033A000448955890E94E4390E94883D609328022F
:1033B0007093290280932A0290932B0280910A0233
:1033C000886080930A0201C1C401B301A201910186
:1033D0000E94E3399B01AC0168A179A18AA19BA15C
:1033E0000E94FB3C60933002709331028093320262
:1033F000909333028C8D9D8DAE8DBF8D8093240272
:1034000090932502A0932602B093270293E0909315
:103410001B02DBC0C801B701A20191010E94E33980
:103420009B01AC0168A179A18AA19BA10E94FB3CF0
:103430009B01AC01C601B5010E94E43920E030E0F7
:1034400040E05FE30E94FB3C7B018C0120E030E028
:1034500040E050E00E94C03C18160CF09AC0C80131
:10346000B701A60195010E94BD3A88230CF08DC0DA
:10347000C401B301A20191010E94E3399B01AC0197
:1034800068A179A18AA19BA10E94FB3C60933002B4
:10349000709331028093320290933302A801970116
:1034A0000E94BD3A88230CF043C08C8D9D8DAE8D5B
:1034B000BF8D8093240290932502A0932602B0939F
:1034C0002702A8ADB9AD5296ED90FD900D911C91DB
:1034D0005597C801B701A40193010E94BD3A882302
:1034E00021F4B1E0B0931B0270C0C401B301A80184
:1034F00097010E94E3399B01AC0168A179A18AA1DF
:103500009BA10E94FB3C9B01AC0160912C0270913D
:103510002D0280912E0290912F020E94E339609338
:103520002C0270932D0280932E0290932F024DC097
:10353000E0922C02F0922D0200932E0210932F02A3
:10354000E0923002F0923102009332021093330283
:10355000E8ADF9AD228D338D448D558DCA01B90189
:103560000E94E439A80197010E94FB3CA20191014D
:103570000E94E4390E94883D6093240270932502E2
:10358000809326029093270220C0F2E0F0931B0262
:103590001CC080E090E0A0E0B0E080932C0290930B
:1035A0002D02A0932E02B0932F02809128029091B9
:1035B0002902A0912A02B0912B02809324029093B9
:1035C0002502A0932602B093270280917E05886091
:1035D00080937E0580910002B7E08B9FD00111247B
:1035E000AE54BE4FB9AFA8AF8091090214968C9328
:1035F000E0910502F0910602FE8BED8B868D978D92
:10360000A0A1B1A1898B9A8BAB8BBC8BBC01CD01E6
:1036100020911702309118024091190250911A021C
:103620000E94E3396CA37DA38EA39FA320E030E02A
:1036300040E050E00E94BD3A882344F480E090E0EE
:10364000A0E0B0E08CA39DA3AEA3BFA38091240211
:1036500090912502A0912602B0912702888F998F20
:10366000AA8FBB8F80912C0290912D02A0912E02E7
:10367000B0912F028D879E87AF87B88B80913002E3
:1036800090913102A0913202B091330289879A87DA
:10369000AB87BC8780911C0290911D02A0911E02F5
:1036A000B0911F028D839E83AF83B88780912802DB
:1036B00090912902A0912A02B0912B0289839A83CA
:1036C000AB83BC83A0902002B0902102C090220264
:1036D000D090230290911B029F8B29883A884B88B7
:1036E0005C888EE393ECAEE2B9E38CA79DA7AEA70E
:1036F000BFA780E090E0A0E0B0E088A799A7AAA7C4
:10370000BBA70F2EFEE36F2EF3EC7F2EFEE28F2E73
:10371000F9E39F2EF02D9F89913009F4E1C091309B
:1037200008F46DC0933009F00DC1C401B301AD8937
:10373000BE895A962D913D914D915C915D970E9465
:10374000FB3C7B018C01C601B501288D398D4A8D6A
:103750005B8D0E94E339A80197010E94BD3A1816BB
:103760005CF169897A898B899C892D853E854F8595
:1037700058890E94E3399B01AC010E94E4397B0126
:103780008C01C601B501288D398D4A8D5B8D0E9453
:10379000E4399B01AC01C801B7010E94C43A3B0166
:1037A0004C012D843E844F845888A88CB98CCA8CD7
:1037B000DB8CB1E0BF8B35C1C801B70120E030E040
:1037C00040E05FEB0E94FB3C9B01AC01C601B501F0
:1037D0000E94E4399B01AC01C401B3010E94FB3C8F
:1037E0009B01AC01C201B1010E94E3391B012C0114
:1037F000C601B501A80197010E94E3396EC0C4015A
:10380000B301ED89FE89228D338D448D558D0E9443
:10381000FB3C7B018C0120E030E040E05FE30E9454
:10382000FB3C9B01AC01C601B5010E94E4399B0140
:10383000AC01C401B3010E94FB3C9B01AC01C2017D
:10384000B1010E94E3391B012C012D853E854F8576
:1038500058890E94BD3A8823D4F56D857E858F8571
:10386000988929853A854B855C850E94BD3A8823D5
:1038700019F4F2E0FF8B02C021E02F8B69897A896D
:103880008B899C892D853E854F8558890E94E33917
:103890009B01AC010E94E4397B018C01C601B5019A
:1038A000288D398D4A8D5B8D0E94E4399B01AC01D6
:1038B000C801B7010E94C43A3B014C012D843E84EB
:1038C0004F845888A88CB98CCA8CDB8CAAC0C601DE
:1038D000B501A80197010E94E4395B016C01A1C008
:1038E000688D798D8A8D9B8DA40193010E94FB3C8C
:1038F0009B01AC01C201B1010E94E3397B018C0143
:1039000029853A854B855C850E94BD3A87FD03C0B9
:103910001701280186C0C201B10129853A854B856E
:103920005C850E94E339288D398D4A8D5B8D0E941C
:10393000C43A3B014C0129843A844B845C8432E0D4
:103940003F8B6FC0C401B301AD89BE895A962D91DA
:103950003D914D915C915D970E94FB3C7B018C01F8
:10396000C601B501A80197010E94C03C18169CF53C
:10397000C801B70120E030E040E05FEB0E94FB3C73
:103980009B01AC01C601B5010E94E4399B01AC0169
:10399000C401B3010E94FB3C9B01AC01C201B10117
:1039A0000E94E33968AB79AB8AAB9BAB2D813E813A
:1039B0004F8158850E94C03C18166CF4C601B501B1
:1039C000A80197010E94E3395B016C0128A839A87E
:1039D0004AA85BA826C0C201B1012D813E814F815A
:1039E00058850E94E3399B01AC010E94E4397B01B8
:1039F0008C01C601B50129813A814B815C810E940D
:103A0000E4399B01AC01C801B7010E94C43A3B01F3
:103A10004C012D803E804F805884A980BA80CB8095
:103A2000DC8068A579A58AA59BA5A40193010E94C5
:103A3000E43968A779A78AA79BA72CA53DA54EA521
:103A40005FA50E94BD3A88232CF46CA57DA58EA5A8
:103A50009FA524C0C201B1012CA13DA14EA15FA12F
:103A60000E94C03C181664F0A0922002B09221027D
:103A7000C0922202D0922302BF89B0931B022CC0B5
:103A80006CA57DA58EA59FA52EE333EC4EE259E3F0
:103A90000E94E4396CA77DA78EA79FA728A539A50A
:103AA0004AA55BA50E94E3393B014C01C201B1016B
:103AB0002D813E814F8158850E94C03C18160CF420
:103AC0002ACEA0922002B0922102C0922202D0926D
:103AD0002302EF89E0931B02E0910702F0910802B4
:103AE0009189992321F480917E0583FF43C0AD899C
:103AF000BE8951968C915197807349F19E96ED90B5
:103B0000FD900D911C91D1979923D1F060912002E5
:103B1000709121028091220290912302209134021F
:103B20003091350240913602509137020E94FB3CA1
:103B30009B01AC01C801B7010E94FB3C7B018C01D9
:103B4000C801B7010E945611809338020EC080E070
:103B500090E0A0E0B0E08093870590938805A09363
:103B60008905B0938A051092380280917E05877F7F
:103B700080937E0580913802A8ADB9AD16968C93DE
:103B8000C201B1012091130230911402409115023B
:103B9000509116020E94FB3C6CAB7DAB8EAB9FAB91
:103BA0000E94AA3A3B014C0160910F0270911002F1
:103BB00080911102909112020E94AA3A5B016C015D
:103BC000A40193010E94E3390E94313BE8ADF9ADB5
:103BD00071836083672B21F480917E0581FDCFC0C6
:103BE00068A579A58AA59BA520910B0230910C02AE
:103BF00040910D0250910E020E94E4397B018C012C
:103C0000C601B5012CA93DA94EA95FA90E94E339BF
:103C10009B01AC01C801B7010E94C43A7B018C0131
:103C200020EC31EE44E65EE40E94FB3C0E94AA3A9E
:103C30000E94313BAB01BC01403DF7E05F07F0E083
:103C40006F07F0E07F0728F4A8ADB9AD15961C9278
:103C500033C0403ABFE05B07B0E06B07B0E07B07E2
:103C600028F421E0E8ADF9AD25830FC040343FE1F1
:103C7000530730E0630730E0730710F4E2E001C05F
:103C8000E3E0A8ADB9AD1596EC93A8ADB9AD159626
:103C90002C911597022E04C07695679557954795F8
:103CA0000A94D2F78D919C91119702C0880F991FA9
:103CB0002A95E2F78D939C934030B0E05B07B1E02A
:103CC0006B07B0E07B0728F4E8ADF9AD538342837E
:103CD00008C0EFEFFFEFA8ADB9AD1396FC93EE93DC
:103CE000129780910102809300028F5F80930102FE
:103CF000863011F410920102E0910502F091060263
:103D0000268E378E40A251A260920F02709210024E
:103D10008092110290921202C401B3012CA93DA914
:103D20004EA95FA90E94E339A80197010E94FB3CBC
:103D300060930B0270930C0280930D0290930E021D
:103D4000C201B10120911C0230911D0240911E025E
:103D500050911F020E94BD3A8823D9F4C201B101DB
:103D600020E030E040E050E00E94C03C18161CF417
:103D700080917E0504C080917E0582FF04C0816031
:103D800080937E050DC010920602109205020E94DB
:103D9000E8259091FF0180910102981709F0C9C8A8
:103DA000E9960FB6F894DEBF0FBECDBFCF91DF917D
:103DB0001F910F91FF90EF90DF90CF90BF90AF9049
:103DC0009F908F907F906F905F904F903F902F903B
:103DD0000895FF920F931F93CF93DF9310920202E7
:103DE00010920302C0E0D0E00C2FFC2E80913C0723
:103DF00090E00C2E02C0959587950A94E2F780FF1B
:103E000008C0109102028C2F0E946F22182B109371
:103E1000020280913D0790E002C095958795FA9443
:103E2000E2F780FF08C010910302802F0E947922E0
:103E3000182B109303022196C330D105A9F6DF9108
:103E4000CF911F910F91FF90089580916F008D7F0A
:103E500080936F0080918100887F816080938100D2
:103E60001092040290913E079F3F41F48091A60575
:103E7000882321F480917A05803851F480917A0565
:103E8000843031F0892F90E00E94202C91E001C015
:103E900090E08091500782FF02C081E0982799232B
:103EA00011F0289A0895289808950E94251F80E30C
:103EB000E9E0F2E0DF011D928A95E9F783E2ECED9B
:103EC000F1E0DF011D928A95E9F71092FE01109250
:103ED000FD0110920602109205021092FF0110924D
:103EE000000281E080930102109204020E94E91E08
:103EF000209103022093EB018BB1837E909102020B
:103F0000892B8BB98BB18F71822B8BB908951F923E
:103F10000F920FB60F9211242F933F934F935F93FD
:103F20006F937F938F939F93AF93BF93CF93DF93C1
:103F3000EF93FF9380910402882309F013C29BB191
:103F40008091EB01807E9F71892B8BB98BB1837E31
:103F50009091EA01892B8BB98091E90186BD82E0BD
:103F600085BD81E08093040278948091FD01909159
:103F7000FE01892B09F0AAC09091FF0180910002F7
:103F8000891709F493C09091FF0187E0989FE001A1
:103F90001124CE54DE4FD093FE01C093FD018A81DF
:103FA0009B81909389008093880088819981909368
:103FB000F9018093F8019C818091FA01891761F1E0
:103FC0009093FA01E2E19E9FF0011124E85AFE4F1E
:103FD000F093FC01E093FB0184859585A685B78568
:103FE000B695A795979587958093E4019093E50101
:103FF000A093E601B093E7018093E0019093E10183
:10400000A093E201B093E3018093DC019093DD0182
:10401000A093DE01B093DF01E091FB01F091FC0180
:1040200080910302908989278093EB012D81808103
:104030009181A281B381022E04C0B695A795979570
:1040400087950A94D2F78093EC019093ED01A093A9
:10405000EE01B093EF0184819581A681B781022E94
:1040600004C0B695A795979587950A94D2F7809343
:10407000F0019093F101A093F201B093F3018085D8
:104080009185A285B38504C0B695A7959795879528
:104090002A95D2F78093F4019093F501A093F6014D
:1040A000B093F7018E810E94481110C00E94251F15
:1040B000E091FB01F091FC018189882319F080E0F7
:1040C0000E94481184E00E946D374CC180918D059B
:1040D000813011F40E9489311092EA012091EC01A3
:1040E0003091ED014091EE015091EF018091DC01A2
:1040F0009091DD01A091DE01B091DF01280F391F01
:104100004A1F5B1F2093DC013093DD014093DE01E9
:104110005093DF01E091FB01F091FC0184859585CE
:10412000A685B78582179307A407B507A8F584E08D
:104130008093EA0184859585A685B785281B390B70
:104140004A0B5B0B2093DC013093DD014093DE01D1
:104150005093DF01808985FF0CC080919A05909172
:104160009B05A0919C05B0919D050197A109B109FE
:104170000BC080919A0590919B05A0919C05B091F0
:104180009D050196A11DB11D80939A0590939B05F5
:10419000A0939C05B0939D052091F0013091F10111
:1041A0004091F2015091F3018091E0019091E10181
:1041B000A091E201B091E301280F391F4A1F5B1F54
:1041C0002093E0013093E1014093E2015093E30139
:1041D00084859585A685B78582179307A407B507BB
:1041E000B8F58091EA0188608093EA01848595851D
:1041F000A685B785281B390B4A0B5B0B2093E00182
:104200003093E1014093E2015093E301808986FFFE
:104210000CC080919E0590919F05A091A005B09142
:10422000A1050197A109B1090BC080919E0590914C
:104230009F05A091A005B091A1050196A11DB11DFA
:1042400080939E0590939F05A093A005B093A10530
:104250002091F4013091F5014091F6015091F70160
:104260008091E4019091E501A091E601B091E70110
:10427000280F391F4A1F5B1F2093E4013093E5018B
:104280004093E6015093E70184859585A685B7851F
:1042900082179307A407B507B8F58091EA018061FA
:1042A0008093EA0184859585A685B785281B390BFF
:1042B0004A0B5B0B2093E4013093E5014093E60148
:1042C0005093E701808987FF0CC08091A2059091EF
:1042D000A305A091A405B091A5050197A109B10975
:1042E0000BC08091A2059091A305A091A405B09167
:1042F000A5050196A11DB11D8093A2059093A3056C
:10430000A093A405B093A50580917A05843039F473
:10431000809180059091EA0189238093EA01809140
:10432000F8019091F90101979093F9018093F801B8
:10433000892B79F41092FE011092FD018091FF010A
:104340008F5F8093FF018091FF01863011F41092FE
:10435000FF01809102029091EA0189278093EA018E
:1043600010920402FF91EF91DF91CF91BF91AF9135
:104370009F918F917F916F915F914F913F912F917D
:104380000F900FBE0F901F901895F999FECF92BD18
:1043900081BD81E08FBB80B50895F894F999FECF77
:1043A00092BD81BD81E08FBB40B54627842F992700
:1043B00087FD9095262F30E082239323892B39F0B7
:1043C0006F3F19F060BD84E006C084E104C044235F
:1043D00021F060BD84E28FBBF99A789408958F92A2
:1043E0009F92AF92BF92CF92DF92EF92FF920F9384
:1043F000DF93CF9300D0CDB7DEB75C016B017A01BC
:104400004A0100E01EC0002319F021E030E008C09E
:10441000202F332727FD30952227330F221F3327E4
:10442000F60161916F01062F020F9C012F5F3F4F34
:104430003A8329830E94CD210894810891088981BB
:104440009A8181149104F9F6C7018A0D9B1D602F92
:104450000E94CD210F900F90CF91DF910F91FF908F
:10446000EF90DF90CF90BF90AF909F908F90089586
:10447000CF93DF93EC01FB019A0190E0B1E019C00A
:10448000F999FECFF2BDE1BDBFBBA0B5992319F0EC
:1044900081E090E008C0892F992787FD90958827B3
:1044A000990F881F992731969A2F980FA993215019
:1044B00030402115310521F7460F571FF999FECFDE
:1044C00052BD41BD81E08FBB80B520E030E0981740
:1044D00011F421E030E0C901DF91CF9108958823E4
:1044E00011F484E00895813011F080E1089588E0AE
:1044F0000895882311F480E20895813011F080E856
:10450000089580E40895882311F482E008958130AD
:1045100011F080E1089584E0089580E090E00E9429
:10452000C521843111F020E00CC08BE097E061E000
:1045300070E045E550E00E94382220E0892B09F028
:1045400021E0822F089580E090E064E10E94CD2177
:1045500081E090E06BE077E045E550E00E94EF21DC
:104560000895CF92DF92EF92FF920F931F93082F3F
:104570006A017B01CB01BA0120E030E040E050E06D
:104580000E94BD3A882314F484E035C1043608F44F
:1045900059C0045690E0033008F04BC0913089F0C8
:1045A000913030F09230D1F0933009F01FC131C01A
:1045B000E02FF0E0EE0FFF1FEE0FFF1FE55FF84F5B
:1045C00008C0E02FF0E0EE0FFF1FEE0FFF1FE95EC7
:1045D000F84FC082D182E282F38208C110E0000F5E
:1045E000111F000F111F0D5D184FC701B60120E00C
:1045F00030E040E752E40E94FB3C20E030E040E73E
:1046000052E40E94FB3CF8016083718382839383B0
:10461000EDC0E02FF0E0EE0FFF1FEE0FFF1FE15D9A
:10462000F84FD701C601B05880839183A283B3832A
:10463000DDC00A3008F4DEC09F5F943009F4DAC0B0
:104640000A50A9CFC701B6010E94C93D0E94313B63
:10465000E02FF0E0E132F10508F0CCC0EF5AFF4F57
:10466000EE0FFF1F0590F491E02D0994633010F4D4
:1046700086E0C1C060933B07B9C060933E07B6C0F7
:1046800060933C0702C060933D070E94E91EAEC0E4
:10469000662321F0809150078460A6C08091500766
:1046A0008B7FA2C0662321F08091500780649CC05C
:1046B000809150078F7B98C0662321F0809150072E
:1046C000806803C0809150078F778093500780E007
:1046D0000E946A318BC060933F0788C0C092400738
:1046E000D0924107E0924207F09243077FC0C09208
:1046F0004407D0924507E0924607F092470776C0FC
:10470000662321F080915007816003C0809150079B
:104710008E7F809350070E94AA3768C0662341F0BD
:104720008091500784FD02C08AE065C080625CC051
:10473000809150078F7D58C0662321F080915007EB
:10474000886003C080915007877F809350070E9444
:104750006A2D4CC0662321F080915007806144C0CF
:10476000809150078F7C40C0609351073FC0C0923A
:104770005207D0925307E0925407F092550736C083
:10478000C0925607D0925707E0925807F092590707
:104790002DC060935A0710925B0728C0C0925C0737
:1047A000D0925D07E0925E07F0925F071FC0C09253
:1047B0004807D0924907E0924A07F0924B0708C099
:1047C000C0924C07D0924D07E0924E07F0924F07EF
:1047D0000E9401110BC0662321F080915007826076
:1047E00003C0809150078D7F809350070E94A322C1
:1047F00080E001C083E01F910F91FF90EF90DF9068
:10480000CF900895BC018EEA93E040E550E00E940D
:10481000EF210895CF93DF93EC016EEA73E040E55A
:1048200050E00E943822892B11F081E009C01882E3
:104830008EEA93E0BE0140E550E00E94EF2180E067
:10484000DF91CF910895EF92FF920F931F93082F5E
:104850007B010E9444168DE0089F80011124C8014D
:1048600080509E4FB7014CE050E00E94EF211F9115
:104870000F91FF90EF900895FF920F931F93F82EE2
:10488000162F072F6DE0869FB001112460507E4FD8
:10489000812F902F4CE050E00E943822892B11F09C
:1048A00081E00DC0E12FF02F8CE0DF011D928A9591
:1048B000E9F78F2D612F702F0E94232480E01F9134
:1048C0000F91FF900895DF92EF92FF920F931F9345
:1048D000DF93CF93CDB7DEB72C970FB6F894DEBF3A
:1048E0000FBECDBFE82E80FFEBC08AE080933B0770
:1048F00089E180933E0710923C0782E080933D0758
:1049000023E020933F078AE097EDA3E2BCE3809386
:10491000400790934107A0934207B09343078FE667
:1049200092E1A3E0BBE38093440790934507A093F3
:104930004607B093470780E090E4ACE1B6E480938B
:10494000480790934907A0934A07B0934B0780E02C
:1049500090E0A0E0B0E080934C0790934D07A093C7
:104960004E07B0934F072093510780E090E0A8ECEA
:10497000B1E48093520790935307A0935407B093E8
:10498000550780E090E0AAEFB3E480935607909338
:104990005707A0935807B09359078AEF90E0909378
:1049A0005B0780935A0780E090E0A0E8BFE3809324
:1049B0005C0790935D07A0935E07B0935F0788E163
:1049C0008093500780E090E0A8E4B4E480930B0764
:1049D00090930C07A0930D07B0930E0780930F07D9
:1049E00090931007A0931107B093120780931307B9
:1049F00090931407A0931507B093160780E090E0FA
:104A0000AAEFB4E48093170790931807A0931907AF
:104A1000B0931A0780931B0790931C07A0931D0760
:104A2000B0931E0780E090E0A6E1B4E480931F07F6
:104A300090932007A0932107B093220780E090EA8B
:104A4000ACE0B7E48093230790932407A093250755
:104A5000B09326078093270790932807A0932907F0
:104A6000B0932A0780932B0790932C07A0932D07D0
:104A7000B0932E0780E090E0AAEFB3EC80932F076D
:104A800090933007A0933107B093320780E090E015
:104A9000A8ECB3EC8093330790933407A0933507C9
:104AA000B093360780E090E0A8ECB2EC8093370733
:104AB00090933807A0933907B0933A070E94A32236
:104AC000E1FE12C0FE0131968CE0DF011D928A9555
:104AD000E9F710E0DE2E0F2F812F6D2D702F0E9431
:104AE00023241F5F1830C1F7E2FE14C080E093E07A
:104AF00060E00E94CD2181E093E060E00E94CD2142
:104B000081E593E060E00E94CD2182E593E060E0E2
:104B10000E94CD21E3FE0AC08EEA93E060E00E948D
:104B2000CD218FEA93E060E00E94CD212C960FB654
:104B3000F894DEBF0FBECDBFCF91DF911F910F91D3
:104B4000FF90EF90DF9008950E948D22882341F41A
:104B500087E00E94FE318FEF0E9463240E94E532BD
:104B60000895EF92FF920F931F93082F7B010E94ED
:104B7000441681E5089F80011124C80180509D4F93
:104B8000B70140E550E00E94EF211F910F91FF9087
:104B9000EF9008951F93CF93DF93182FEB0161E5FA
:104BA000869FB001112460507D4FCE0140E550E05A
:104BB0000E943822892B11F081E006C01882812FD3
:104BC000BE010E94B12580E0DF91CF911F91089531
:104BD0002091590580915A05821769F0922F9F5FA5
:104BE000903109F490E080915C05281711F49093BE
:104BF0005C0590935905089520915A0582E3289FFA
:104C000090011124275C3D4FC901089590915905E9
:104C100080915A05891719F420E030E006C082E33C
:104C2000989F90011124275C3D4FC9010895209160
:104C300059052F5F203109F420E080915A0528178B
:104C400029F470E060E090E080E017C030E082E39B
:104C500090E0289FF001299FF00D389FF00D11245E
:104C6000E75CFD4FDF015296728911966C911197A6
:104C700012969C91129713968C91272F362F492FBD
:104C8000582FB901CA01089520E0909159058091EB
:104C90005B05981709F421E0822F0895AF92BF9227
:104CA000CF92DF92EF92FF920F931F93CF93DF93F8
:104CB000EC01EAA4FBA40CA51DA5898980FF18C0FE
:104CC0006091820570E0882777FD8095982F0E947B
:104CD0005F3B2AE037ED43E25CE30E94FB3C9B0133
:104CE000AC01C801B7010E94FB3C7B018C012DC0C7
:104CF00082FD17C06091810570E0882777FD80955F
:104D0000982F0E945F3B2AE037ED43E25CE30E946C
:104D1000FB3C9B01AC01C801B7010E94FB3C7B013D
:104D20008C01DEA0CFA0B8A4A9A4C801B7012D2D85
:104D30003C2D4B2D5A2D0E94C03C181634F48D2D5D
:104D40009C2DAB2DBA2D7C018D01C801B70120E04F
:104D500030E040E85FE30E94C03C181654F00F2E8C
:104D6000F0E0EF2EF0E0FF2EF0E80F2FFFE31F2F13
:104D7000F02DB701C801DF91CF911F910F91FF90E6
:104D8000EF90DF90CF90BF90AF9008957F928F9279
:104D90009F92AF92BF92CF92DF92EF92FF920F93CA
:104DA0001F93CF93DF939090590580905A050F2E53
:104DB000F9E9EF2EF6E7FF2EF6E90F2FFEE71F2F9A
:104DC000F02D82E3782E38C0979CE0011124C75C57
:104DD000DD4FCE010E944E265B016C01A8019701B8
:104DE0000E94C03C18162CF4C801B701A801970115
:104DF00004C0C601B501A60195010E94FB3C6E8B63
:104E00007F8B888F998FEAA0FBA00CA11DA16E89D2
:104E10007F89888D998DA80197010E94C03C181642
:104E200024F4EE8AFF8A088F198F939480E19816F4
:104E300009F4992486017501981431F6E0927505FC
:104E4000F09276050093770510937805DF91CF9166
:104E50001F910F91FF90EF90DF90CF90BF90AF9098
:104E60009F908F907F90089580919A0590919B05D7
:104E7000A0919C05B0919D0580935D0590935E0582
:104E8000A0935F05B093600580919E0590919F056A
:104E9000A091A005B091A105809361059093620552
:104EA000A0936305B09364058091A2059091A3053A
:104EB000A091A405B091A505809365059093660522
:104EC000A0936705B0936805089590915A05809165
:104ED0005905981718F0815F891B08958150891B27
:104EE00008954F925F926F927F928F929F92AF92AE
:104EF000BF92CF92DF92EF92FF920F931F93CF93C7
:104F0000DF9380915A05882309F480E1782E7A9402
:104F100060905C05761409F4F2C082E3789E40014B
:104F2000112489E392E0880E991EF401A688B788BF
:104F3000C08CD18C228D338D448D558DCA01B90121
:104F40000E94E439F401268D378D40A151A10E94C1
:104F5000FB3C7B018C01B501C601A80197010E94B1
:104F6000BD3A87FD04C0D801C70157016D01C501D5
:104F7000D601F401828B938BA48BB58B772011F42F
:104F800040E1742E7A94761409F04EC08091590550
:104F9000681609F050C00E943F174DC0769CE00192
:104FA0001124C75CDD4F772011F430E1732E7A9421
:104FB00080915905781611F40E943F17AE88BF887A
:104FC000C88CD98C6A897B898C899D89A6019501B9
:104FD0000E94BD3A882331F12A8D3B8D4C8D5D8D29
:104FE000CA01B9010E94E4392E8D3F8D48A159A113
:104FF0000E94FB3CF40122893389448955890E942F
:10500000E4397B018C01A60195010E94BD3A8823F9
:105010002CF4EA8AFB8A0C8B1D8B04C0AA8ABB8AFB
:10502000CC8ADD8A4E0102C022E3622E80915C05AB
:10503000781609F0B3CFA0905C05BA2CB394F0E1D8
:10504000BF1609F4BB2482E3A89E80011124075CEB
:105050001D4F50905A0592E3492E4CC0B49CE0017C
:105060001124C75CDD4FF801C288D388E488F58835
:105070006A887B888C889D88C701B601A40193014A
:105080000E94BD3A88231CF5F801228D338D448D92
:10509000558DCA01B9010E94E439F801268D378D7A
:1050A00040A151A10E94FB3C9B01AC01C701B6018C
:1050B0000E94E4397B018C01A40193010E94BD3A56
:1050C00088232CF4EA8AFB8A0C8B1D8BAB2C6A8913
:1050D0007B898C899D892E893F89488D598D0E94B5
:1050E000BD3A882309F4AB2CB394F0E1BF1609F460
:1050F000BB248E01B51409F0B1CFA0925C05DF91FD
:10510000CF911F910F91FF90EF90DF90CF90BF90C4
:10511000AF909F908F907F906F905F904F90089589
:105120000E943F178091590580935C050E9471276A
:1051300008958CE1EDE5F5E0DF011D928A95E9F730
:105140001092590510925A0581E080935B051092E8
:105150005C0508952F923F924F925F926F927F92DB
:105160008F929F92AF92BF92CF92DF92EF92FF9277
:105170000F931F93DF93CF93CDB7DEB7E0970FB6B2
:10518000F894DEBF0FBECDBF1C013B0180915A05D4
:1051900092E3899F2001112429E332E0420E531E3D
:1051A000D2011D929A95E9F7FB012085D201519613
:1051B0002C9384819581A681B781F20186A797A758
:1051C000A0ABB1ABCE010D9621FF09C0DC01EAE92D
:1051D000F5E08CE001900D928150E1F708C0DC0110
:1051E000EDE5F5E08CE001900D928150E1F76BE088
:1051F000862E67E0962E5E010894A11CB11C5DE02E
:10520000C52ED12CCC0EDD1E00E0EE24FF24F101D2
:10521000EE0DFF1D6081718182819381D4012D91FA
:105220003D914D915C910E94FB3C0E94CB3C9B01C7
:10523000AC01F5012083318342835383F6018081E1
:105240009181A281B381281B390B4A0B5B0B57FF5D
:1052500007C050954095309521953F4F4F4F5F4F78
:10526000F201EE0DFF1D2083318342835383F2014F
:1052700084859585A685B785281739074A075B0772
:1052800010F49C01AD01D2011C962D933D934D93DA
:105290005C931F97F5016081718182819381D601B2
:1052A0002D913D914D915C91621B730B840B950B7D
:1052B0000E945F3BF40120813181428153810E9431
:1052C000C43AE9E1F0E0EC0FFD1FEE0DFF1D608335
:1052D00071838283938320E030E040E050E00E94BD
:1052E000BD3A88234CF4D20150961C91802F0E9425
:1052F0007922182BF201108B0F5F24E030E0E20ED0
:10530000F31E820E931EA20EB31EC20ED31E0330D6
:1053100009F07DCFF20184859585A685B785009734
:10532000A105B10511F480E0BAC18E01075E1F4FDF
:10533000C8010E948A2CD2015E966D937D938D9355
:105340009C93919783E297E0B8010E942A2CF20186
:10535000628F738F848F958F87E197E0B8010E94E9
:105360002A2C9B01AC01D20196966D937D938D936F
:105370009C93999751968C91E82F80FF06C0F2017B
:1053800022A733A744A755A71BC0D3016D917D91D8
:105390008D919C91D2019A966D937D938D939C9360
:1053A0009D97E3FF0DC05E962D913D914D915C91CF
:1053B00091970E94FB3CF20162A773A784A795A76F
:1053C00090915A0580915905981729F0D20151966C
:1053D0008C9181FF0AC080E090E0A0E0B0E0F20193
:1053E000828B938BA48BB58B7DC0A0906905B09008
:1053F0006A05C0906B05D0906C05E98CFA8C0B8D1A
:105400001C8DC601B501A80197010E94FB3C9B01C0
:10541000AC0160E070E080E090E00E94E3393B0185
:105420004C01C801B701A60195010E94E3396DA3A3
:105430007EA38FA398A7A0906D05B0906E05C09035
:105440006F05D0907005ED8CFE8C0F8D18A1C601F4
:10545000B501A80197010E94FB3C9B01AC01C4016E
:10546000B3010E94E3393B014C01C801B701A60119
:1054700095010E94E33969A77AA78BA79CA7A09002
:105480007105B0907205C0907305D0907405E9A0C5
:10549000FAA00BA11CA1C601B501A80197010E94A9
:1054A000FB3C9B01AC01C401B3010E94E3393B0109
:1054B0004C01C801B701A60195010E94E3396DA70F
:1054C0007EA78FA798ABC401B3012FEE3FEF4FE744
:1054D0005FE30E94C03C181654F480E090E0A0E026
:1054E000B0E0F20182A393A3A4A3B5A369C0C40151
:1054F000B3012FEE3FEF4FE75FEB0E94BD3A8823E9
:105500002CF489E996E7A6E9BEE7EBCF8E010B5DA7
:105510001F4FC8010E948A2C83E297E0B8010E94C5
:105520002A2C7B018C0160E070E080E89FE3A401FD
:1055300093010E94E33920E030E040E05FE30E9405
:10554000FB3C0E94883D5B016C01C801B7012091C2
:1055500040073091410740914207509143070E9414
:10556000FB3CA60195010E94FB3C7B018C0160E0A5
:1055700070E080E89FE3A60195010E94E3399B015A
:10558000AC01C801B7010E94C43A7B018C0120E044
:1055900030E040E050E00E94BD3A882354F40F2EE2
:1055A000F0E0EF2EF0E0FF2EF0E00F2FF0E01F2FE5
:1055B000F02DD2019296ED92FD920D931C9395974A
:1055C000F201818981FD6AC0C2010E944E265B0101
:1055D0006C01E0907505F0907605009177051091CB
:1055E0007805A80197010E94C03C181674F4C80100
:1055F000B701A80197010E94FB3CD20156966D931A
:105600007D938D939C9359970BC0C601B501A6015C
:1056100095010E94FB3CF201668B778B808F918F06
:10562000D2019296ED90FD900D911C919597569612
:105630006D917D918D919C915997A80197010E9440
:10564000C03C18162CF4F201E68AF78A008F118FFD
:10565000A0927505B0927605C0927705D092780534
:10566000A9E6B5E0FE0179968CE001900D9281509B
:10567000E1F7ADE5B5E0FE0131968CE001900D92C9
:105680008150E1F780915B0580935A058F5F8031EF
:1056900009F480E080935B050E94712781E0E09629
:1056A0000FB6F894DEBF0FBECDBFCF91DF911F9133
:1056B0000F91FF90EF90DF90CF90BF90AF909F90B1
:1056C0008F907F906F905F904F903F902F900895B4
:1056D0006F927F928F929F92AF92BF92CF92DF9202
:1056E000EF92FF920F931F93CF93DF934C013B01F7
:1056F0005A01FB018081F401E80FF11DEF0189914E
:105700008D3229F481812196CC24C39405C08B323B
:1057100011F481812196CC2420E030E040E050E07B
:10572000DD24E0E070E0682F60536A30F8F4EF5F4A
:10573000E930C0F47111DA94DA01C901F2E0880F9E
:10574000991FAA1FBB1FFA95D1F7280F391F4A1FAF
:105750005B1F220F331F441F551F260F311D411D94
:10576000511D09C0772339F4D39405C06E3F29F445
:10577000772319F471E08991D6CFEE2311F480E0FC
:1057800050C0CA01B9010E945D3B7B018C0120E041
:1057900030E040E050E00E94BD3A882369F42BC01D
:1057A000C801B7012AE037ED43E25CE30E94FB3C0D
:1057B0007B018C01F2E0DF0E8FEFD8168CF3D81648
:1057C00059F4C801B7012DEC3CEC4CEC5DE30E94B0
:1057D000FB3C7B018C010FC0DD2069F0C801B701E3
:1057E00020E030E040E251E40E94FB3C7B018C0170
:1057F000DA941D149CF3CC2049F0D801C701B058AD
:10580000F50180839183A283B38305C0F501E08213
:10581000F18202831383882D80958C0FF30180839E
:1058200081E0DF91CF911F910F91FF90EF90DF907A
:10583000CF90BF90AF909F908F907F906F90089582
:1058400020EA3FE004C0F9013197F1F70197009792
:10585000D1F708956F927F928F929F92AF92BF92ED
:10586000CF92DF92EF92FF920F931F93CF93DF932C
:105870003C014B0109E9A02E16E7B12EB6E9CB2E6B
:10588000AEE7DA2EC0E0D0E0F401EC0FFD1FE080BF
:10589000F18002811381C801B70120E030E040E0CF
:1058A00050E00E94BD3A8823B9F0F301EC0FFD1FD0
:1058B0006081718182819381A80197010E94C43A1D
:1058C0007B018C01E89417F9B501C601A801970185
:1058D0000E94BD3A882324F4C501D6017C018D01C4
:1058E0002496CC30D10529F0D801C70157016D01AC
:1058F000CBCFB701C801DF91CF911F910F91FF90DE
:10590000EF90DF90CF90BF90AF909F908F907F905F
:105910006F9008958F929F92AF92BF92CF92DF9235
:10592000EF92FF920F931F93CF93DF93EC010F2E13
:10593000F0E0AF2EF0E0BF2EF0E0CF2EF0E0DF2E53
:10594000F02D88249924FE01E80DF91DE080F180F6
:1059500002811381C801B70120E030E040E050E04F
:105960000E94BD3A882371F0C801B701A8019701D0
:105970000E94FB3C9B01AC01C601B5010E94E439C9
:105980005B016C0184E090E0880E991E9CE0891612
:105990009104C9F6C601B5010E94883D5B016C0106
:1059A00060E070E080E89FE3A60195010E94C43AA0
:1059B0007B018C01688179818A819B81A801970193
:1059C0000E94FB3C688379838A839B836C817D8101
:1059D0008E819F81A80197010E94FB3C6C837D838F
:1059E0008E839F83688579858A859B85A801970129
:1059F0000E94FB3C688779878A879B87B501C6012F
:105A0000DF91CF911F910F91FF90EF90DF90CF909A
:105A1000BF90AF909F908F900895AF92BF92CF921A
:105A2000DF92EF92FF920F931F937B018C0159013C
:105A30006A01A80197010E94FB3C7B018C01C60111
:105A4000B501A60195010E94FB3C9B01AC01C80178
:105A5000B7010E94E4390E94883D1F910F91FF9089
:105A6000EF90DF90CF90BF90AF900895FF920F938B
:105A70001F93CF93DF93F42E20E030E040EA51E40F
:105A80000E94FB3C0E94AA3A0E94313BEB0100E9D4
:105A900011E018C080917B058823B1F4FF2029F420
:105AA0000E942D1584EF91E007C00E947A13809127
:105AB0007C0581FFF7CF08C0F8013197F1F7019716
:105AC000D9F72197209731F7DF91CF911F910F914F
:105AD000FF90089584B1897E84B985B1866185B9C6
